{
  "_format": "hh-sol-artifact-1",
  "contractName": "NFTMarketplace",
  "sourceName": "contracts/NFTMarketplace.sol",
  "abi": [
    {
      "inputs": [],
      "stateMutability": "nonpayable",
      "type": "constructor"
    },
    {
      "anonymous": false,
      "inputs": [
        {
          "indexed": true,
          "internalType": "address",
          "name": "owner",
          "type": "address"
        },
        {
          "indexed": true,
          "internalType": "address",
          "name": "approved",
          "type": "address"
        },
        {
          "indexed": true,
          "internalType": "uint256",
          "name": "tokenId",
          "type": "uint256"
        }
      ],
      "name": "Approval",
      "type": "event"
    },
    {
      "anonymous": false,
      "inputs": [
        {
          "indexed": true,
          "internalType": "address",
          "name": "owner",
          "type": "address"
        },
        {
          "indexed": true,
          "internalType": "address",
          "name": "operator",
          "type": "address"
        },
        {
          "indexed": false,
          "internalType": "bool",
          "name": "approved",
          "type": "bool"
        }
      ],
      "name": "ApprovalForAll",
      "type": "event"
    },
    {
      "anonymous": false,
      "inputs": [
        {
          "indexed": true,
          "internalType": "address",
          "name": "from",
          "type": "address"
        },
        {
          "indexed": true,
          "internalType": "address",
          "name": "to",
          "type": "address"
        },
        {
          "indexed": true,
          "internalType": "uint256",
          "name": "tokenId",
          "type": "uint256"
        }
      ],
      "name": "Transfer",
      "type": "event"
    },
    {
      "anonymous": false,
      "inputs": [
        {
          "indexed": true,
          "internalType": "uint256",
          "name": "tokenId",
          "type": "uint256"
        },
        {
          "indexed": false,
          "internalType": "address",
          "name": "seller",
          "type": "address"
        },
        {
          "indexed": false,
          "internalType": "address",
          "name": "owner",
          "type": "address"
        },
        {
          "indexed": false,
          "internalType": "uint256",
          "name": "price",
          "type": "uint256"
        },
        {
          "indexed": false,
          "internalType": "bool",
          "name": "sold",
          "type": "bool"
        }
      ],
      "name": "idMarketItemCreated",
      "type": "event"
    },
    {
      "inputs": [
        {
          "internalType": "address",
          "name": "to",
          "type": "address"
        },
        {
          "internalType": "uint256",
          "name": "tokenId",
          "type": "uint256"
        }
      ],
      "name": "approve",
      "outputs": [],
      "stateMutability": "nonpayable",
      "type": "function"
    },
    {
      "inputs": [
        {
          "internalType": "address",
          "name": "owner",
          "type": "address"
        }
      ],
      "name": "balanceOf",
      "outputs": [
        {
          "internalType": "uint256",
          "name": "",
          "type": "uint256"
        }
      ],
      "stateMutability": "view",
      "type": "function"
    },
    {
      "inputs": [
        {
          "internalType": "uint256",
          "name": "tokenId",
          "type": "uint256"
        }
      ],
      "name": "createMarketSale",
      "outputs": [],
      "stateMutability": "payable",
      "type": "function"
    },
    {
      "inputs": [
        {
          "internalType": "string",
          "name": "tokenURI",
          "type": "string"
        },
        {
          "internalType": "uint256",
          "name": "price",
          "type": "uint256"
        }
      ],
      "name": "createToken",
      "outputs": [
        {
          "internalType": "uint256",
          "name": "",
          "type": "uint256"
        }
      ],
      "stateMutability": "payable",
      "type": "function"
    },
    {
      "inputs": [],
      "name": "fetchItemListsed",
      "outputs": [
        {
          "components": [
            {
              "internalType": "uint256",
              "name": "tokenId",
              "type": "uint256"
            },
            {
              "internalType": "address payable",
              "name": "seller",
              "type": "address"
            },
            {
              "internalType": "address payable",
              "name": "owner",
              "type": "address"
            },
            {
              "internalType": "uint256",
              "name": "price",
              "type": "uint256"
            },
            {
              "internalType": "bool",
              "name": "sold",
              "type": "bool"
            }
          ],
          "internalType": "struct NFTMarketplace.MarketItem[]",
          "name": "",
          "type": "tuple[]"
        }
      ],
      "stateMutability": "view",
      "type": "function"
    },
    {
      "inputs": [],
      "name": "fetchMarketItem",
      "outputs": [
        {
          "components": [
            {
              "internalType": "uint256",
              "name": "tokenId",
              "type": "uint256"
            },
            {
              "internalType": "address payable",
              "name": "seller",
              "type": "address"
            },
            {
              "internalType": "address payable",
              "name": "owner",
              "type": "address"
            },
            {
              "internalType": "uint256",
              "name": "price",
              "type": "uint256"
            },
            {
              "internalType": "bool",
              "name": "sold",
              "type": "bool"
            }
          ],
          "internalType": "struct NFTMarketplace.MarketItem[]",
          "name": "",
          "type": "tuple[]"
        }
      ],
      "stateMutability": "view",
      "type": "function"
    },
    {
      "inputs": [],
      "name": "fetchMyNFT",
      "outputs": [
        {
          "components": [
            {
              "internalType": "uint256",
              "name": "tokenId",
              "type": "uint256"
            },
            {
              "internalType": "address payable",
              "name": "seller",
              "type": "address"
            },
            {
              "internalType": "address payable",
              "name": "owner",
              "type": "address"
            },
            {
              "internalType": "uint256",
              "name": "price",
              "type": "uint256"
            },
            {
              "internalType": "bool",
              "name": "sold",
              "type": "bool"
            }
          ],
          "internalType": "struct NFTMarketplace.MarketItem[]",
          "name": "",
          "type": "tuple[]"
        }
      ],
      "stateMutability": "view",
      "type": "function"
    },
    {
      "inputs": [
        {
          "internalType": "uint256",
          "name": "tokenId",
          "type": "uint256"
        }
      ],
      "name": "getApproved",
      "outputs": [
        {
          "internalType": "address",
          "name": "",
          "type": "address"
        }
      ],
      "stateMutability": "view",
      "type": "function"
    },
    {
      "inputs": [],
      "name": "getListingPrice",
      "outputs": [
        {
          "internalType": "uint256",
          "name": "",
          "type": "uint256"
        }
      ],
      "stateMutability": "view",
      "type": "function"
    },
    {
      "inputs": [
        {
          "internalType": "address",
          "name": "owner",
          "type": "address"
        },
        {
          "internalType": "address",
          "name": "operator",
          "type": "address"
        }
      ],
      "name": "isApprovedForAll",
      "outputs": [
        {
          "internalType": "bool",
          "name": "",
          "type": "bool"
        }
      ],
      "stateMutability": "view",
      "type": "function"
    },
    {
      "inputs": [],
      "name": "name",
      "outputs": [
        {
          "internalType": "string",
          "name": "",
          "type": "string"
        }
      ],
      "stateMutability": "view",
      "type": "function"
    },
    {
      "inputs": [
        {
          "internalType": "uint256",
          "name": "tokenId",
          "type": "uint256"
        }
      ],
      "name": "ownerOf",
      "outputs": [
        {
          "internalType": "address",
          "name": "",
          "type": "address"
        }
      ],
      "stateMutability": "view",
      "type": "function"
    },
    {
      "inputs": [
        {
          "internalType": "uint256",
          "name": "tokenId",
          "type": "uint256"
        },
        {
          "internalType": "uint256",
          "name": "price",
          "type": "uint256"
        }
      ],
      "name": "reSellToken",
      "outputs": [],
      "stateMutability": "payable",
      "type": "function"
    },
    {
      "inputs": [
        {
          "internalType": "address",
          "name": "from",
          "type": "address"
        },
        {
          "internalType": "address",
          "name": "to",
          "type": "address"
        },
        {
          "internalType": "uint256",
          "name": "tokenId",
          "type": "uint256"
        }
      ],
      "name": "safeTransferFrom",
      "outputs": [],
      "stateMutability": "nonpayable",
      "type": "function"
    },
    {
      "inputs": [
        {
          "internalType": "address",
          "name": "from",
          "type": "address"
        },
        {
          "internalType": "address",
          "name": "to",
          "type": "address"
        },
        {
          "internalType": "uint256",
          "name": "tokenId",
          "type": "uint256"
        },
        {
          "internalType": "bytes",
          "name": "data",
          "type": "bytes"
        }
      ],
      "name": "safeTransferFrom",
      "outputs": [],
      "stateMutability": "nonpayable",
      "type": "function"
    },
    {
      "inputs": [
        {
          "internalType": "address",
          "name": "operator",
          "type": "address"
        },
        {
          "internalType": "bool",
          "name": "approved",
          "type": "bool"
        }
      ],
      "name": "setApprovalForAll",
      "outputs": [],
      "stateMutability": "nonpayable",
      "type": "function"
    },
    {
      "inputs": [
        {
          "internalType": "bytes4",
          "name": "interfaceId",
          "type": "bytes4"
        }
      ],
      "name": "supportsInterface",
      "outputs": [
        {
          "internalType": "bool",
          "name": "",
          "type": "bool"
        }
      ],
      "stateMutability": "view",
      "type": "function"
    },
    {
      "inputs": [],
      "name": "symbol",
      "outputs": [
        {
          "internalType": "string",
          "name": "",
          "type": "string"
        }
      ],
      "stateMutability": "view",
      "type": "function"
    },
    {
      "inputs": [
        {
          "internalType": "uint256",
          "name": "tokenId",
          "type": "uint256"
        }
      ],
      "name": "tokenURI",
      "outputs": [
        {
          "internalType": "string",
          "name": "",
          "type": "string"
        }
      ],
      "stateMutability": "view",
      "type": "function"
    },
    {
      "inputs": [
        {
          "internalType": "address",
          "name": "from",
          "type": "address"
        },
        {
          "internalType": "address",
          "name": "to",
          "type": "address"
        },
        {
          "internalType": "uint256",
          "name": "tokenId",
          "type": "uint256"
        }
      ],
      "name": "transferFrom",
      "outputs": [],
      "stateMutability": "nonpayable",
      "type": "function"
    },
    {
      "inputs": [
        {
          "internalType": "uint256",
          "name": "_listingPrice",
          "type": "uint256"
        }
      ],
      "name": "updateListingPrice",
      "outputs": [],
      "stateMutability": "payable",
      "type": "function"
    }
  ],
  "bytecode": "0x60806040526605543df729c0006009553480156200001c57600080fd5b506040518060400160405280601381526020017f4e4654204d657461766172736520546f6b656e000000000000000000000000008152506040518060400160405280600581526020017f4d594e465400000000000000000000000000000000000000000000000000000081525081600090816200009a919062000355565b508060019081620000ac919062000355565b5050503373ffffffffffffffffffffffffffffffffffffffff16600a60009054906101000a905050506200043c565b600081519050919050565b7f4e487b7100000000000000000000000000000000000000000000000000000000600052604160045260246000fd5b7f4e487b7100000000000000000000000000000000000000000000000000000000600052602260045260246000fd5b600060028204905060018216806200015d57607f821691505b60208210810362000173576200017262000115565b5b50919050565b60008190508160005260206000209050919050565b60006020601f8301049050919050565b600082821b905092915050565b600060088302620001dd7fffffffffffffffffffffffffffffffffffffffffffffffffffffffffffffffff826200019e565b620001e986836200019e565b95508019841693508086168417925050509392505050565b6000819050919050565b6000819050919050565b600062000236620002306200022a8462000201565b6200020b565b62000201565b9050919050565b6000819050919050565b620002528362000215565b6200026a62000261826200023d565b848454620001ab565b825550505050565b600090565b6200028162000272565b6200028e81848462000247565b505050565b5b81811015620002b657620002aa60008262000277565b60018101905062000294565b5050565b601f8211156200030557620002cf8162000179565b620002da846200018e565b81016020851015620002ea578190505b62000302620002f9856200018e565b83018262000293565b50505b505050565b600082821c905092915050565b60006200032a600019846008026200030a565b1980831691505092915050565b600062000345838362000317565b9150826002028217905092915050565b6200036082620000db565b67ffffffffffffffff8111156200037c576200037b620000e6565b5b62000388825462000144565b62000395828285620002ba565b600060209050601f831160018114620003cd5760008415620003b8578287015190505b620003c4858262000337565b86555062000434565b601f198416620003dd8662000179565b60005b828110156200040757848901518255600182019150602085019450602081019050620003e0565b8683101562000427578489015162000423601f89168262000317565b8355505b6001600288020188555050505b505050505050565b614110806200044c6000396000f3fe60806040526004361061012a5760003560e01c806372b3b620116100ab578063ae677aa31161006f578063ae677aa3146103ea578063b88d4fde14610406578063be9af5361461042f578063c18763f71461044b578063c87b56dd14610476578063e985e9c5146104b35761012a565b806372b3b6201461031f57806385535b251461034f5780638fafd0211461036b57806395d89b4114610396578063a22cb465146103c15761012a565b806313b657e8116100f257806313b657e81461022857806323b872dd1461025357806342842e0e1461027c5780636352211e146102a557806370a08231146102e25761012a565b806301ffc9a71461012f57806306fdde031461016c578063081812fc14610197578063095ea7b3146101d457806312e85585146101fd575b600080fd5b34801561013b57600080fd5b5061015660048036038101906101519190612972565b6104f0565b60405161016391906129ba565b60405180910390f35b34801561017857600080fd5b506101816105d2565b60405161018e9190612a65565b60405180910390f35b3480156101a357600080fd5b506101be60048036038101906101b99190612abd565b610664565b6040516101cb9190612b2b565b60405180910390f35b3480156101e057600080fd5b506101fb60048036038101906101f69190612b72565b6106aa565b005b34801561020957600080fd5b506102126107c1565b60405161021f9190612bc1565b60405180910390f35b34801561023457600080fd5b5061023d6107cb565b60405161024a9190612d32565b60405180910390f35b34801561025f57600080fd5b5061027a60048036038101906102759190612d54565b610ab5565b005b34801561028857600080fd5b506102a3600480360381019061029e9190612d54565b610b15565b005b3480156102b157600080fd5b506102cc60048036038101906102c79190612abd565b610b35565b6040516102d99190612b2b565b60405180910390f35b3480156102ee57600080fd5b5061030960048036038101906103049190612da7565b610be6565b6040516103169190612bc1565b60405180910390f35b61033960048036038101906103349190612f09565b610c9d565b6040516103469190612bc1565b60405180910390f35b61036960048036038101906103649190612f65565b610cdf565b005b34801561037757600080fd5b50610380610ed4565b60405161038d9190612d32565b60405180910390f35b3480156103a257600080fd5b506103ab61113a565b6040516103b89190612a65565b60405180910390f35b3480156103cd57600080fd5b506103e860048036038101906103e39190612fd1565b6111cc565b005b61040460048036038101906103ff9190612abd565b6111e2565b005b34801561041257600080fd5b5061042d600480360381019061042891906130b2565b61127c565b005b61044960048036038101906104449190612abd565b6112de565b005b34801561045757600080fd5b50610460611516565b60405161046d9190612d32565b60405180910390f35b34801561048257600080fd5b5061049d60048036038101906104989190612abd565b611802565b6040516104aa9190612a65565b60405180910390f35b3480156104bf57600080fd5b506104da60048036038101906104d59190613135565b611914565b6040516104e791906129ba565b60405180910390f35b60007f80ac58cd000000000000000000000000000000000000000000000000000000007bffffffffffffffffffffffffffffffffffffffffffffffffffffffff1916827bffffffffffffffffffffffffffffffffffffffffffffffffffffffff191614806105bb57507f5b5e139f000000000000000000000000000000000000000000000000000000007bffffffffffffffffffffffffffffffffffffffffffffffffffffffff1916827bffffffffffffffffffffffffffffffffffffffffffffffffffffffff1916145b806105cb57506105ca826119a8565b5b9050919050565b6060600080546105e1906131a4565b80601f016020809104026020016040519081016040528092919081815260200182805461060d906131a4565b801561065a5780601f1061062f5761010080835404028352916020019161065a565b820191906000526020600020905b81548152906001019060200180831161063d57829003601f168201915b5050505050905090565b600061066f82611a12565b6004600083815260200190815260200160002060009054906101000a900473ffffffffffffffffffffffffffffffffffffffff169050919050565b60006106b582610b35565b90508073ffffffffffffffffffffffffffffffffffffffff168373ffffffffffffffffffffffffffffffffffffffff1603610725576040517f08c379a000000000000000000000000000000000000000000000000000000000815260040161071c90613247565b60405180910390fd5b8073ffffffffffffffffffffffffffffffffffffffff16610744611a5d565b73ffffffffffffffffffffffffffffffffffffffff16148061077357506107728161076d611a5d565b611914565b5b6107b2576040517f08c379a00000000000000000000000000000000000000000000000000000000081526004016107a9906132d9565b60405180910390fd5b6107bc8383611a65565b505050565b6000600954905090565b606060006107d96007611b1e565b905060008060005b83811015610881573373ffffffffffffffffffffffffffffffffffffffff16600b60006001846108119190613328565b815260200190815260200160002060010160009054906101000a900473ffffffffffffffffffffffffffffffffffffffff1673ffffffffffffffffffffffffffffffffffffffff160361086e5760018361086b9190613328565b92505b80806108799061335c565b9150506107e1565b5060008267ffffffffffffffff81111561089e5761089d612dde565b5b6040519080825280602002602001820160405280156108d757816020015b6108c46128a9565b8152602001906001900390816108bc5790505b50905060005b84811015610aaa573373ffffffffffffffffffffffffffffffffffffffff16600b600060018461090d9190613328565b815260200190815260200160002060010160009054906101000a900473ffffffffffffffffffffffffffffffffffffffff1673ffffffffffffffffffffffffffffffffffffffff1603610a995760006001826109699190613328565b90506000600b60008381526020019081526020016000209050806040518060a0016040529081600082015481526020016001820160009054906101000a900473ffffffffffffffffffffffffffffffffffffffff1673ffffffffffffffffffffffffffffffffffffffff1673ffffffffffffffffffffffffffffffffffffffff1681526020016002820160009054906101000a900473ffffffffffffffffffffffffffffffffffffffff1673ffffffffffffffffffffffffffffffffffffffff1673ffffffffffffffffffffffffffffffffffffffff168152602001600382015481526020016004820160009054906101000a900460ff161515151581525050848681518110610a7c57610a7b6133a4565b5b6020026020010181905250600185610a949190613328565b945050505b80610aa39061335c565b90506108dd565b508094505050505090565b610ac6610ac0611a5d565b82611b2c565b610b05576040517f08c379a0000000000000000000000000000000000000000000000000000000008152600401610afc90613445565b60405180910390fd5b610b10838383611bc1565b505050565b610b308383836040518060200160405280600081525061127c565b505050565b6000806002600084815260200190815260200160002060009054906101000a900473ffffffffffffffffffffffffffffffffffffffff169050600073ffffffffffffffffffffffffffffffffffffffff168173ffffffffffffffffffffffffffffffffffffffff1603610bdd576040517f08c379a0000000000000000000000000000000000000000000000000000000008152600401610bd4906134b1565b60405180910390fd5b80915050919050565b60008073ffffffffffffffffffffffffffffffffffffffff168273ffffffffffffffffffffffffffffffffffffffff1603610c56576040517f08c379a0000000000000000000000000000000000000000000000000000000008152600401610c4d90613543565b60405180910390fd5b600360008373ffffffffffffffffffffffffffffffffffffffff1673ffffffffffffffffffffffffffffffffffffffff168152602001908152602001600020549050919050565b6000610ca96007611e27565b6000610cb56007611b1e565b9050610cc13382611e3d565b610ccb8185612016565b610cd58184612083565b8091505092915050565b3373ffffffffffffffffffffffffffffffffffffffff16600b600084815260200190815260200160002060020160009054906101000a900473ffffffffffffffffffffffffffffffffffffffff1673ffffffffffffffffffffffffffffffffffffffff1614610d83576040517f08c379a0000000000000000000000000000000000000000000000000000000008152600401610d7a906135d5565b60405180910390fd5b6009543414610dc7576040517f08c379a0000000000000000000000000000000000000000000000000000000008152600401610dbe90613667565b60405180910390fd5b6000600b600084815260200190815260200160002060040160006101000a81548160ff02191690831515021790555080600b60008481526020019081526020016000206003018190555033600b600084815260200190815260200160002060010160006101000a81548173ffffffffffffffffffffffffffffffffffffffff021916908373ffffffffffffffffffffffffffffffffffffffff16021790555030600b600084815260200190815260200160002060020160006101000a81548173ffffffffffffffffffffffffffffffffffffffff021916908373ffffffffffffffffffffffffffffffffffffffff160217905550610ec56008612286565b610ed0333084611bc1565b5050565b60606000610ee26007611b1e565b90506000610ef06008611b1e565b610efa6007611b1e565b610f049190613687565b90506000808267ffffffffffffffff811115610f2357610f22612dde565b5b604051908082528060200260200182016040528015610f5c57816020015b610f496128a9565b815260200190600190039081610f415790505b50905060005b8481101561112f573073ffffffffffffffffffffffffffffffffffffffff16600b6000600184610f929190613328565b815260200190815260200160002060020160009054906101000a900473ffffffffffffffffffffffffffffffffffffffff1673ffffffffffffffffffffffffffffffffffffffff160361111e576000600182610fee9190613328565b90506000600b60008381526020019081526020016000209050806040518060a0016040529081600082015481526020016001820160009054906101000a900473ffffffffffffffffffffffffffffffffffffffff1673ffffffffffffffffffffffffffffffffffffffff1673ffffffffffffffffffffffffffffffffffffffff1681526020016002820160009054906101000a900473ffffffffffffffffffffffffffffffffffffffff1673ffffffffffffffffffffffffffffffffffffffff1673ffffffffffffffffffffffffffffffffffffffff168152602001600382015481526020016004820160009054906101000a900460ff161515151581525050848681518110611101576111006133a4565b5b60200260200101819052506001856111199190613328565b945050505b806111289061335c565b9050610f62565b508094505050505090565b606060018054611149906131a4565b80601f0160208091040260200160405190810160405280929190818152602001828054611175906131a4565b80156111c25780601f10611197576101008083540402835291602001916111c2565b820191906000526020600020905b8154815290600101906020018083116111a557829003601f168201915b5050505050905090565b6111de6111d7611a5d565b83836122e2565b5050565b600a60009054906101000a900473ffffffffffffffffffffffffffffffffffffffff1673ffffffffffffffffffffffffffffffffffffffff163373ffffffffffffffffffffffffffffffffffffffff1614611272576040517f08c379a00000000000000000000000000000000000000000000000000000000081526004016112699061372d565b60405180910390fd5b8060098190555050565b61128d611287611a5d565b83611b2c565b6112cc576040517f08c379a00000000000000000000000000000000000000000000000000000000081526004016112c390613445565b60405180910390fd5b6112d88484848461244e565b50505050565b6000600b600083815260200190815260200160002060030154905080341461133b576040517f08c379a0000000000000000000000000000000000000000000000000000000008152600401611332906137bf565b60405180910390fd5b33600b600084815260200190815260200160002060020160006101000a81548173ffffffffffffffffffffffffffffffffffffffff021916908373ffffffffffffffffffffffffffffffffffffffff1602179055506001600b600084815260200190815260200160002060040160006101000a81548160ff0219169083151502179055506000600b600084815260200190815260200160002060020160006101000a81548173ffffffffffffffffffffffffffffffffffffffff021916908373ffffffffffffffffffffffffffffffffffffffff16021790555061141f6008611e27565b61142a303384611bc1565b600a60009054906101000a900473ffffffffffffffffffffffffffffffffffffffff1673ffffffffffffffffffffffffffffffffffffffff166108fc6009549081150290604051600060405180830381858888f19350505050158015611494573d6000803e3d6000fd5b50600b600083815260200190815260200160002060010160009054906101000a900473ffffffffffffffffffffffffffffffffffffffff1673ffffffffffffffffffffffffffffffffffffffff166108fc349081150290604051600060405180830381858888f19350505050158015611511573d6000803e3d6000fd5b505050565b606060006115246007611b1e565b905060008060005b838110156115cc573373ffffffffffffffffffffffffffffffffffffffff16600b600060018461155c9190613328565b815260200190815260200160002060020160009054906101000a900473ffffffffffffffffffffffffffffffffffffffff1673ffffffffffffffffffffffffffffffffffffffff16036115b9576001836115b69190613328565b92505b80806115c49061335c565b91505061152c565b5060008267ffffffffffffffff8111156115e9576115e8612dde565b5b60405190808252806020026020018201604052801561162257816020015b61160f6128a9565b8152602001906001900390816116075790505b50905060005b848110156117f7573373ffffffffffffffffffffffffffffffffffffffff16600b60006001846116589190613328565b815260200190815260200160002060020160009054906101000a900473ffffffffffffffffffffffffffffffffffffffff1673ffffffffffffffffffffffffffffffffffffffff16036117e45760006001826116b49190613328565b90506000600b60008381526020019081526020016000209050806040518060a0016040529081600082015481526020016001820160009054906101000a900473ffffffffffffffffffffffffffffffffffffffff1673ffffffffffffffffffffffffffffffffffffffff1673ffffffffffffffffffffffffffffffffffffffff1681526020016002820160009054906101000a900473ffffffffffffffffffffffffffffffffffffffff1673ffffffffffffffffffffffffffffffffffffffff1673ffffffffffffffffffffffffffffffffffffffff168152602001600382015481526020016004820160009054906101000a900460ff1615151515815250508486815181106117c7576117c66133a4565b5b60200260200101819052506001856117df9190613328565b945050505b80806117ef9061335c565b915050611628565b508094505050505090565b606061180d82611a12565b600060066000848152602001908152602001600020805461182d906131a4565b80601f0160208091040260200160405190810160405280929190818152602001828054611859906131a4565b80156118a65780601f1061187b576101008083540402835291602001916118a6565b820191906000526020600020905b81548152906001019060200180831161188957829003601f168201915b5050505050905060006118b76124aa565b905060008151036118cc57819250505061190f565b6000825111156119015780826040516020016118e992919061381b565b6040516020818303038152906040529250505061190f565b61190a846124c1565b925050505b919050565b6000600560008473ffffffffffffffffffffffffffffffffffffffff1673ffffffffffffffffffffffffffffffffffffffff16815260200190815260200160002060008373ffffffffffffffffffffffffffffffffffffffff1673ffffffffffffffffffffffffffffffffffffffff16815260200190815260200160002060009054906101000a900460ff16905092915050565b60007f01ffc9a7000000000000000000000000000000000000000000000000000000007bffffffffffffffffffffffffffffffffffffffffffffffffffffffff1916827bffffffffffffffffffffffffffffffffffffffffffffffffffffffff1916149050919050565b611a1b81612529565b611a5a576040517f08c379a0000000000000000000000000000000000000000000000000000000008152600401611a51906134b1565b60405180910390fd5b50565b600033905090565b816004600083815260200190815260200160002060006101000a81548173ffffffffffffffffffffffffffffffffffffffff021916908373ffffffffffffffffffffffffffffffffffffffff160217905550808273ffffffffffffffffffffffffffffffffffffffff16611ad883610b35565b73ffffffffffffffffffffffffffffffffffffffff167f8c5be1e5ebec7d5bd14f71427d1e84f3dd0314c0f7b2291e5b200ac8c7c3b92560405160405180910390a45050565b600081600001549050919050565b600080611b3883610b35565b90508073ffffffffffffffffffffffffffffffffffffffff168473ffffffffffffffffffffffffffffffffffffffff161480611b7a5750611b798185611914565b5b80611bb857508373ffffffffffffffffffffffffffffffffffffffff16611ba084610664565b73ffffffffffffffffffffffffffffffffffffffff16145b91505092915050565b8273ffffffffffffffffffffffffffffffffffffffff16611be182610b35565b73ffffffffffffffffffffffffffffffffffffffff1614611c37576040517f08c379a0000000000000000000000000000000000000000000000000000000008152600401611c2e906138b1565b60405180910390fd5b600073ffffffffffffffffffffffffffffffffffffffff168273ffffffffffffffffffffffffffffffffffffffff1603611ca6576040517f08c379a0000000000000000000000000000000000000000000000000000000008152600401611c9d90613943565b60405180910390fd5b611cb1838383612595565b611cbc600082611a65565b6001600360008573ffffffffffffffffffffffffffffffffffffffff1673ffffffffffffffffffffffffffffffffffffffff1681526020019081526020016000206000828254611d0c9190613687565b925050819055506001600360008473ffffffffffffffffffffffffffffffffffffffff1673ffffffffffffffffffffffffffffffffffffffff1681526020019081526020016000206000828254611d639190613328565b92505081905550816002600083815260200190815260200160002060006101000a81548173ffffffffffffffffffffffffffffffffffffffff021916908373ffffffffffffffffffffffffffffffffffffffff160217905550808273ffffffffffffffffffffffffffffffffffffffff168473ffffffffffffffffffffffffffffffffffffffff167fddf252ad1be2c89b69c2b068fc378daa952ba7f163c4a11628f55a4df523b3ef60405160405180910390a4611e2283838361259a565b505050565b6001816000016000828254019250508190555050565b600073ffffffffffffffffffffffffffffffffffffffff168273ffffffffffffffffffffffffffffffffffffffff1603611eac576040517f08c379a0000000000000000000000000000000000000000000000000000000008152600401611ea3906139af565b60405180910390fd5b611eb581612529565b15611ef5576040517f08c379a0000000000000000000000000000000000000000000000000000000008152600401611eec90613a1b565b60405180910390fd5b611f0160008383612595565b6001600360008473ffffffffffffffffffffffffffffffffffffffff1673ffffffffffffffffffffffffffffffffffffffff1681526020019081526020016000206000828254611f519190613328565b92505081905550816002600083815260200190815260200160002060006101000a81548173ffffffffffffffffffffffffffffffffffffffff021916908373ffffffffffffffffffffffffffffffffffffffff160217905550808273ffffffffffffffffffffffffffffffffffffffff16600073ffffffffffffffffffffffffffffffffffffffff167fddf252ad1be2c89b69c2b068fc378daa952ba7f163c4a11628f55a4df523b3ef60405160405180910390a46120126000838361259a565b5050565b61201f82612529565b61205e576040517f08c379a000000000000000000000000000000000000000000000000000000000815260040161205590613aad565b60405180910390fd5b8060066000848152602001908152602001600020908161207e9190613c79565b505050565b600081116120c6576040517f08c379a00000000000000000000000000000000000000000000000000000000081526004016120bd90613d97565b60405180910390fd5b600954341461210a576040517f08c379a000000000000000000000000000000000000000000000000000000000815260040161210190613667565b60405180910390fd5b6040518060a001604052808381526020013373ffffffffffffffffffffffffffffffffffffffff1681526020013073ffffffffffffffffffffffffffffffffffffffff16815260200182815260200160001515815250600b60008481526020019081526020016000206000820151816000015560208201518160010160006101000a81548173ffffffffffffffffffffffffffffffffffffffff021916908373ffffffffffffffffffffffffffffffffffffffff16021790555060408201518160020160006101000a81548173ffffffffffffffffffffffffffffffffffffffff021916908373ffffffffffffffffffffffffffffffffffffffff1602179055506060820151816003015560808201518160040160006101000a81548160ff021916908315150217905550905050612243333084611bc1565b817fdebdb32cb5230ab727c9c361b16fdb2015df225c10e6a3e7f60ecd5dc5be4516333084600060405161227a9493929190613db7565b60405180910390a25050565b600081600001549050600081116122d2576040517f08c379a00000000000000000000000000000000000000000000000000000000081526004016122c990613e48565b60405180910390fd5b6001810382600001819055505050565b8173ffffffffffffffffffffffffffffffffffffffff168373ffffffffffffffffffffffffffffffffffffffff1603612350576040517f08c379a000000000000000000000000000000000000000000000000000000000815260040161234790613eb4565b60405180910390fd5b80600560008573ffffffffffffffffffffffffffffffffffffffff1673ffffffffffffffffffffffffffffffffffffffff16815260200190815260200160002060008473ffffffffffffffffffffffffffffffffffffffff1673ffffffffffffffffffffffffffffffffffffffff16815260200190815260200160002060006101000a81548160ff0219169083151502179055508173ffffffffffffffffffffffffffffffffffffffff168373ffffffffffffffffffffffffffffffffffffffff167f17307eab39ab6107e8899845ad3d59bd9653f200f220920489ca2b5937696c318360405161244191906129ba565b60405180910390a3505050565b612459848484611bc1565b6124658484848461259f565b6124a4576040517f08c379a000000000000000000000000000000000000000000000000000000000815260040161249b90613f46565b60405180910390fd5b50505050565b606060405180602001604052806000815250905090565b60606124cc82611a12565b60006124d66124aa565b905060008151116124f65760405180602001604052806000815250612521565b8061250084612726565b60405160200161251192919061381b565b6040516020818303038152906040525b915050919050565b60008073ffffffffffffffffffffffffffffffffffffffff166002600084815260200190815260200160002060009054906101000a900473ffffffffffffffffffffffffffffffffffffffff1673ffffffffffffffffffffffffffffffffffffffff1614159050919050565b505050565b505050565b60006125c08473ffffffffffffffffffffffffffffffffffffffff16612886565b15612719578373ffffffffffffffffffffffffffffffffffffffff1663150b7a026125e9611a5d565b8786866040518563ffffffff1660e01b815260040161260b9493929190613fbb565b6020604051808303816000875af192505050801561264757506040513d601f19601f82011682018060405250810190612644919061401c565b60015b6126c9573d8060008114612677576040519150601f19603f3d011682016040523d82523d6000602084013e61267c565b606091505b5060008151036126c1576040517f08c379a00000000000000000000000000000000000000000000000000000000081526004016126b890613f46565b60405180910390fd5b805181602001fd5b63150b7a0260e01b7bffffffffffffffffffffffffffffffffffffffffffffffffffffffff1916817bffffffffffffffffffffffffffffffffffffffffffffffffffffffff19161491505061271e565b600190505b949350505050565b60606000820361276d576040518060400160405280600181526020017f30000000000000000000000000000000000000000000000000000000000000008152509050612881565b600082905060005b6000821461279f5780806127889061335c565b915050600a826127989190614078565b9150612775565b60008167ffffffffffffffff8111156127bb576127ba612dde565b5b6040519080825280601f01601f1916602001820160405280156127ed5781602001600182028036833780820191505090505b5090505b6000851461287a576001826128069190613687565b9150600a8561281591906140a9565b60306128219190613328565b60f81b818381518110612837576128366133a4565b5b60200101907effffffffffffffffffffffffffffffffffffffffffffffffffffffffffffff1916908160001a905350600a856128739190614078565b94506127f1565b8093505050505b919050565b6000808273ffffffffffffffffffffffffffffffffffffffff163b119050919050565b6040518060a0016040528060008152602001600073ffffffffffffffffffffffffffffffffffffffff168152602001600073ffffffffffffffffffffffffffffffffffffffff168152602001600081526020016000151581525090565b6000604051905090565b600080fd5b600080fd5b60007fffffffff0000000000000000000000000000000000000000000000000000000082169050919050565b61294f8161291a565b811461295a57600080fd5b50565b60008135905061296c81612946565b92915050565b60006020828403121561298857612987612910565b5b60006129968482850161295d565b91505092915050565b60008115159050919050565b6129b48161299f565b82525050565b60006020820190506129cf60008301846129ab565b92915050565b600081519050919050565b600082825260208201905092915050565b60005b83811015612a0f5780820151818401526020810190506129f4565b60008484015250505050565b6000601f19601f8301169050919050565b6000612a37826129d5565b612a4181856129e0565b9350612a518185602086016129f1565b612a5a81612a1b565b840191505092915050565b60006020820190508181036000830152612a7f8184612a2c565b905092915050565b6000819050919050565b612a9a81612a87565b8114612aa557600080fd5b50565b600081359050612ab781612a91565b92915050565b600060208284031215612ad357612ad2612910565b5b6000612ae184828501612aa8565b91505092915050565b600073ffffffffffffffffffffffffffffffffffffffff82169050919050565b6000612b1582612aea565b9050919050565b612b2581612b0a565b82525050565b6000602082019050612b406000830184612b1c565b92915050565b612b4f81612b0a565b8114612b5a57600080fd5b50565b600081359050612b6c81612b46565b92915050565b60008060408385031215612b8957612b88612910565b5b6000612b9785828601612b5d565b9250506020612ba885828601612aa8565b9150509250929050565b612bbb81612a87565b82525050565b6000602082019050612bd66000830184612bb2565b92915050565b600081519050919050565b600082825260208201905092915050565b6000819050602082019050919050565b612c1181612a87565b82525050565b6000612c2282612aea565b9050919050565b612c3281612c17565b82525050565b612c418161299f565b82525050565b60a082016000820151612c5d6000850182612c08565b506020820151612c706020850182612c29565b506040820151612c836040850182612c29565b506060820151612c966060850182612c08565b506080820151612ca96080850182612c38565b50505050565b6000612cbb8383612c47565b60a08301905092915050565b6000602082019050919050565b6000612cdf82612bdc565b612ce98185612be7565b9350612cf483612bf8565b8060005b83811015612d25578151612d0c8882612caf565b9750612d1783612cc7565b925050600181019050612cf8565b5085935050505092915050565b60006020820190508181036000830152612d4c8184612cd4565b905092915050565b600080600060608486031215612d6d57612d6c612910565b5b6000612d7b86828701612b5d565b9350506020612d8c86828701612b5d565b9250506040612d9d86828701612aa8565b9150509250925092565b600060208284031215612dbd57612dbc612910565b5b6000612dcb84828501612b5d565b91505092915050565b600080fd5b600080fd5b7f4e487b7100000000000000000000000000000000000000000000000000000000600052604160045260246000fd5b612e1682612a1b565b810181811067ffffffffffffffff82111715612e3557612e34612dde565b5b80604052505050565b6000612e48612906565b9050612e548282612e0d565b919050565b600067ffffffffffffffff821115612e7457612e73612dde565b5b612e7d82612a1b565b9050602081019050919050565b82818337600083830152505050565b6000612eac612ea784612e59565b612e3e565b905082815260208101848484011115612ec857612ec7612dd9565b5b612ed3848285612e8a565b509392505050565b600082601f830112612ef057612eef612dd4565b5b8135612f00848260208601612e99565b91505092915050565b60008060408385031215612f2057612f1f612910565b5b600083013567ffffffffffffffff811115612f3e57612f3d612915565b5b612f4a85828601612edb565b9250506020612f5b85828601612aa8565b9150509250929050565b60008060408385031215612f7c57612f7b612910565b5b6000612f8a85828601612aa8565b9250506020612f9b85828601612aa8565b9150509250929050565b612fae8161299f565b8114612fb957600080fd5b50565b600081359050612fcb81612fa5565b92915050565b60008060408385031215612fe857612fe7612910565b5b6000612ff685828601612b5d565b925050602061300785828601612fbc565b9150509250929050565b600067ffffffffffffffff82111561302c5761302b612dde565b5b61303582612a1b565b9050602081019050919050565b600061305561305084613011565b612e3e565b90508281526020810184848401111561307157613070612dd9565b5b61307c848285612e8a565b509392505050565b600082601f83011261309957613098612dd4565b5b81356130a9848260208601613042565b91505092915050565b600080600080608085870312156130cc576130cb612910565b5b60006130da87828801612b5d565b94505060206130eb87828801612b5d565b93505060406130fc87828801612aa8565b925050606085013567ffffffffffffffff81111561311d5761311c612915565b5b61312987828801613084565b91505092959194509250565b6000806040838503121561314c5761314b612910565b5b600061315a85828601612b5d565b925050602061316b85828601612b5d565b9150509250929050565b7f4e487b7100000000000000000000000000000000000000000000000000000000600052602260045260246000fd5b600060028204905060018216806131bc57607f821691505b6020821081036131cf576131ce613175565b5b50919050565b7f4552433732313a20617070726f76616c20746f2063757272656e74206f776e6560008201527f7200000000000000000000000000000000000000000000000000000000000000602082015250565b60006132316021836129e0565b915061323c826131d5565b604082019050919050565b6000602082019050818103600083015261326081613224565b9050919050565b7f4552433732313a20617070726f76652063616c6c6572206973206e6f7420746f60008201527f6b656e206f776e6572206e6f7220617070726f76656420666f7220616c6c0000602082015250565b60006132c3603e836129e0565b91506132ce82613267565b604082019050919050565b600060208201905081810360008301526132f2816132b6565b9050919050565b7f4e487b7100000000000000000000000000000000000000000000000000000000600052601160045260246000fd5b600061333382612a87565b915061333e83612a87565b9250828201905080821115613356576133556132f9565b5b92915050565b600061336782612a87565b91507fffffffffffffffffffffffffffffffffffffffffffffffffffffffffffffffff8203613399576133986132f9565b5b600182019050919050565b7f4e487b7100000000000000000000000000000000000000000000000000000000600052603260045260246000fd5b7f4552433732313a2063616c6c6572206973206e6f7420746f6b656e206f776e6560008201527f72206e6f7220617070726f766564000000000000000000000000000000000000602082015250565b600061342f602e836129e0565b915061343a826133d3565b604082019050919050565b6000602082019050818103600083015261345e81613422565b9050919050565b7f4552433732313a20696e76616c696420746f6b656e2049440000000000000000600082015250565b600061349b6018836129e0565b91506134a682613465565b602082019050919050565b600060208201905081810360008301526134ca8161348e565b9050919050565b7f4552433732313a2061646472657373207a65726f206973206e6f74206120766160008201527f6c6964206f776e65720000000000000000000000000000000000000000000000602082015250565b600061352d6029836129e0565b9150613538826134d1565b604082019050919050565b6000602082019050818103600083015261355c81613520565b9050919050565b7f4f6e6c79206974656d206f776e65722063616e20706572666f726d207468697360008201527f206f7065726174696f6e00000000000000000000000000000000000000000000602082015250565b60006135bf602a836129e0565b91506135ca82613563565b604082019050919050565b600060208201905081810360008301526135ee816135b2565b9050919050565b7f5072696365206d75737420626520657175616c20746f206c697374696e67207060008201527f7269636500000000000000000000000000000000000000000000000000000000602082015250565b60006136516024836129e0565b915061365c826135f5565b604082019050919050565b6000602082019050818103600083015261368081613644565b9050919050565b600061369282612a87565b915061369d83612a87565b92508282039050818111156136b5576136b46132f9565b5b92915050565b7f6f6e6c79206f776e6572206f6620746865206d61726b6574706c61636520636160008201527f6e206368616e6765206c697374696e6720707269636500000000000000000000602082015250565b60006137176036836129e0565b9150613722826136bb565b604082019050919050565b600060208201905081810360008301526137468161370a565b9050919050565b7f506c65617365207375626d6974207468652061736b696e6720696e206f72646560008201527f7220746f20636f6d706c65746520746865207075726368617365200000000000602082015250565b60006137a9603b836129e0565b91506137b48261374d565b604082019050919050565b600060208201905081810360008301526137d88161379c565b9050919050565b600081905092915050565b60006137f5826129d5565b6137ff81856137df565b935061380f8185602086016129f1565b80840191505092915050565b600061382782856137ea565b915061383382846137ea565b91508190509392505050565b7f4552433732313a207472616e736665722066726f6d20696e636f72726563742060008201527f6f776e6572000000000000000000000000000000000000000000000000000000602082015250565b600061389b6025836129e0565b91506138a68261383f565b604082019050919050565b600060208201905081810360008301526138ca8161388e565b9050919050565b7f4552433732313a207472616e7366657220746f20746865207a65726f2061646460008201527f7265737300000000000000000000000000000000000000000000000000000000602082015250565b600061392d6024836129e0565b9150613938826138d1565b604082019050919050565b6000602082019050818103600083015261395c81613920565b9050919050565b7f4552433732313a206d696e7420746f20746865207a65726f2061646472657373600082015250565b60006139996020836129e0565b91506139a482613963565b602082019050919050565b600060208201905081810360008301526139c88161398c565b9050919050565b7f4552433732313a20746f6b656e20616c7265616479206d696e74656400000000600082015250565b6000613a05601c836129e0565b9150613a10826139cf565b602082019050919050565b60006020820190508181036000830152613a34816139f8565b9050919050565b7f45524337323155524953746f726167653a2055524920736574206f66206e6f6e60008201527f6578697374656e7420746f6b656e000000000000000000000000000000000000602082015250565b6000613a97602e836129e0565b9150613aa282613a3b565b604082019050919050565b60006020820190508181036000830152613ac681613a8a565b9050919050565b60008190508160005260206000209050919050565b60006020601f8301049050919050565b600082821b905092915050565b600060088302613b2f7fffffffffffffffffffffffffffffffffffffffffffffffffffffffffffffffff82613af2565b613b398683613af2565b95508019841693508086168417925050509392505050565b6000819050919050565b6000613b76613b71613b6c84612a87565b613b51565b612a87565b9050919050565b6000819050919050565b613b9083613b5b565b613ba4613b9c82613b7d565b848454613aff565b825550505050565b600090565b613bb9613bac565b613bc4818484613b87565b505050565b5b81811015613be857613bdd600082613bb1565b600181019050613bca565b5050565b601f821115613c2d57613bfe81613acd565b613c0784613ae2565b81016020851015613c16578190505b613c2a613c2285613ae2565b830182613bc9565b50505b505050565b600082821c905092915050565b6000613c5060001984600802613c32565b1980831691505092915050565b6000613c698383613c3f565b9150826002028217905092915050565b613c82826129d5565b67ffffffffffffffff811115613c9b57613c9a612dde565b5b613ca582546131a4565b613cb0828285613bec565b600060209050601f831160018114613ce35760008415613cd1578287015190505b613cdb8582613c5d565b865550613d43565b601f198416613cf186613acd565b60005b82811015613d1957848901518255600182019150602085019450602081019050613cf4565b86831015613d365784890151613d32601f891682613c3f565b8355505b6001600288020188555050505b505050505050565b7f5072696365206d75737420626520616c20626573742031000000000000000000600082015250565b6000613d816017836129e0565b9150613d8c82613d4b565b602082019050919050565b60006020820190508181036000830152613db081613d74565b9050919050565b6000608082019050613dcc6000830187612b1c565b613dd96020830186612b1c565b613de66040830185612bb2565b613df360608301846129ab565b95945050505050565b7f436f756e7465723a2064656372656d656e74206f766572666c6f770000000000600082015250565b6000613e32601b836129e0565b9150613e3d82613dfc565b602082019050919050565b60006020820190508181036000830152613e6181613e25565b9050919050565b7f4552433732313a20617070726f766520746f2063616c6c657200000000000000600082015250565b6000613e9e6019836129e0565b9150613ea982613e68565b602082019050919050565b60006020820190508181036000830152613ecd81613e91565b9050919050565b7f4552433732313a207472616e7366657220746f206e6f6e20455243373231526560008201527f63656976657220696d706c656d656e7465720000000000000000000000000000602082015250565b6000613f306032836129e0565b9150613f3b82613ed4565b604082019050919050565b60006020820190508181036000830152613f5f81613f23565b9050919050565b600081519050919050565b600082825260208201905092915050565b6000613f8d82613f66565b613f978185613f71565b9350613fa78185602086016129f1565b613fb081612a1b565b840191505092915050565b6000608082019050613fd06000830187612b1c565b613fdd6020830186612b1c565b613fea6040830185612bb2565b8181036060830152613ffc8184613f82565b905095945050505050565b60008151905061401681612946565b92915050565b60006020828403121561403257614031612910565b5b600061404084828501614007565b91505092915050565b7f4e487b7100000000000000000000000000000000000000000000000000000000600052601260045260246000fd5b600061408382612a87565b915061408e83612a87565b92508261409e5761409d614049565b5b828204905092915050565b60006140b482612a87565b91506140bf83612a87565b9250826140cf576140ce614049565b5b82820690509291505056fea26469706673582212204586a7fa8b772183482addb5dae7911345a670ce4c80b578c4fe3739f172060b64736f6c63430008130033",
  "linkReferences": {},
  "deployedLinkReferences": {}
}